:101A19008B248A258926E92404F9E43A8B2CF52DAF
:101A2900892E8D2F852830A926120E27E526240C0C
:101A3900F9E4352585242CF52D892EAB24AA25A971
:041A490026020F77EB
:1019D100AB3EAA3FA9401202DCFFAB41AA42A94398
:1019E100221202F5FFC4540F75F006A422900002E2
:1019F100AB35AA36A9370202F5F9E4353385323918
:101A0100F53A893B22F9E4353385323AF53B893C95
:081A110022AB3EAA3FA94022CE
:06126D008B3E8A3F894020
:101273001219DB9000021202F5540FFF1202DC6018
:101283001FEF600EFD7C00AE5CAF5D12038AED4C78
:1012930070067E007F0180047E007F00EF4E7003A6
:1012A3007F00221219DB9000031202F5FF121A12BB
:1012B3001202DCFED39F400A1219DB900001740175
:1012C300800CEEC39F500A1219DB900001E4120355
:1012D300561219DB9000011202F57038E546D394DB
:1012E300004015121A12E5461203221202DCC395BE
:1012F300444005E5441203441219D190000312033C
:1013030056EF65446004E546704090000174011295
:1013130003568036E547D394004013EED395471226
:101323001A124005EE95478002E54512034412194F
:10133300D1900003120356EF65456004E547700A38
:0C134300900001E41203567F01227F009D
:01134F00227B
:061879008B328A33893432
:10187F00E538B402068B398A3A893BE538B401075B
:10188F00E53424011219FAE5387007E53424021201
:10189F0019FAAB35AA36A9378B418A428943900092
:1018AF00051219E2F544EF1219E7F54590000412FD
:1018BF0019E2F546EF1219E7F547AB39AA3AA93BFA
:0318CF0012126D85
:0118D20022F3
:061350008B328A33893460
:10135600E4F5397F011219EEC4540FF53DE538B4B2
:10136600020985323A85333B85343CE538B40107BA
:10137600E5342401121A06E5387007E53424021212
:101386001A069000051219F11219E6FE75F00A8484
:10139600FDEE75F00584853DF0A4FCC3EE9CFEEDE4
:1013A600D394004005EE8DF084FF853541853642A5
:1013B6008537438E44E4F5458F468F47AB3AAA3BC3
:1013C600A93C12126DEF600D053DE53DB40506E43E
:1013D600F53D7539011219EE540FFFE53DC454F081
:0913E6004F900002120356AF39CA
:0113EF0022DB
:10044F0060320064000000000000000000000000A7
:10045F00000000000000000000000000000000008D
:10046F00000000000000000000000000000000007D
:10047F0000000000000060320032000000000000A9
:10048F00000000000000000000000000000000005D
:10049F00000000000000000000000000000000004D
:1004AF0000000000000000000000000060320000AB
:1004BF00000000000000000000000000000000002D
:1004CF00000000000000000000000000000000001D
:1004DF00000000000000000000000000000000000D
:1004EF000000617A0096000000000000000000008C
:1004FF0000000000000000000000000000000000ED
:10050F0000000000000000000000000000000000DC
:10051F0000000000000000000000000000000000CC
:10052F0000000000000000000000000000000000BC
:10053F0000000000000000000000000000000000AC
:10054F00000000000000000000000000000000009C
:10055F00000000000000000000000000000000008C
:10056F00000000000000000000000000000000007C
:10057F00000000000000000000000000000000006C
:10058F00000000000000000000000000000000005C
:10059F00000000000000000000000000000000004C
:1005AF00000000000000000000000000000000003C
:1005BF00000000000000000000000000000000002C
:1005CF00000000000000000000000000000000001C
:1005DF00000000000000000000000000000000000C
:1005EF0000000000000000000000000000000000FC
:1005FF0000000000000000000000000000000000EC
:10060F0000000000000000000000000000000000DB
:10061F0000000000000000000000000000000000CB
:10062F0000000000000000000000000000000000BB
:10063F0000000000000000000000000000000000AB
:10064F00000000000000000000000000000000009B
:10065F00000000000000000000000000000000008B
:03066F00011F3236
:10175A00852C35852D36852E37753801753901E486
:10176A00F53AAB29AA2AA92B22E52E2402F9E43557
:10177A002D852C35F536893722E52E2402F9E435F4
:10178A002D852C35F536893722F583E493AB32AAB9
:10179A0033A93422C39FFFE495F0FE7C007D031237
:1017AA00038AEF22AB35AA36A9379000010202F567
:06147C008B328A33893433
:101482001217AE540F75F00AA4600EFD7C00AE5C1C
:10149200AF5D12038AED4C70651217AEFFC4540F94
:1014A20004540FFEEF540FFFEEC454F04F900001AE
:1014B200120356E5386012EE75F003A424E6F582B5
:1014C200E4341A121793120344E5396015EE75F0ED
:1014D20003A424E7F582E4341A1217939000011250
:1014E2000356E53A6015EE75F003A424E8F582E4AC
:1014F200341A1217939000021203567F01227F00C2
:0115020022C6
:060E27008B298A2A892BA9
:100E2D00E4F531E52F75F00684FB75F006A4FFE5BA
:100E3D002F12179E2BFBE53075F00684FA75F00620
:100E4D00A4FFE53012179E2A4BFFAB2CE52E240292
:100E5D00F9E4352DFA900005EF120356AB2CAA2DAF
:100E6D00A92E1202DCB40F004003020F74900E8104
:100E7D00F8282873020EAE020EB4020EB6020EB89A
:100E8D00020EBB020EBE020EDB020EEA020EF802CD
:100E9D000F06020F1D020EB8020F36020F3E020F93
:100EAD005A753101020F74802B8038020F25020F05
:100EBD000C852C35852D36852E3775380175390104
:100ECD00753A0112176C12147C8F31020F741217C0
:100EDD005A12147C121773E4F538020F2B12175A9D
:100EED0012147C121783E4F538801A12175A121453
:100EFD007C121773753801802512175A12147C1243
:100F0D00178375380112176C1213508F31020F743D
:100F1D001217737538028006121773753801121780
:100F2D006C1218798F31020F741217737538028095
:100F3D000612177375380112176C1218798F31124A
:100F4D001773E4F53812176C121879801A1217738B
:100F5D0075380212176C1218798F31121783E4F558
:090F6D003812176C121350AF3159
:010F76002258
:101AE6000064640B64641164642164643264644356
:101AF60064644C64640000640000000000000000A0
:101B060000000000000000000000000000000000CF
:101A8100900002AB33AA34A9350202F575F0FFA428
:101A9100FFAEF07C007D6402038AFE900002120218
:101AA100F5FD7C001203787D6402038AC374649F90
:031AB100FFE4222D
:061081008B338A3489352F
:101087001202DC75F006A4FBAAF07C007D64FFAEBB
:101097000212038A8F42AF03E54275F064A4FEC3D0
:1010A700EF9EF543C394055003E4F5439000011206
:1010B7001A84FF121AAD9400121A9B8F44900001F4
:1010C7001202F5FFE5438FF0121A90121AAD9E1225
:1010D7001A9B8F459000011202F5FD7C00C37464D2
:1010E7009543FFE49400FE121AA5121AAD9EFE90D6
:1010F70000021202F5FB121AA2E54275F00684E51A
:10110700F014601614602014602914602E146037E0
:101117002405703E8B3F8F40800885453F121A811A
:10112700F540854441802B85443F121A81F5408F55
:1011370041801F85443F85454080058F3F8544405A
:10114700121A81F541800B121A81F53F85444085BB
:101157004541E53F121A8DAB36AA37A938EF12037E
:1011670044E540121A8DAB39AA3AA93BEF12034462
:0F117700E541121A8DAB3CAA3DA93EEF0203449D
:101BB600121B9D121BCD121B3B121B161215031274
:071BC600074D12118680F5A6
:100672000F48000000000000000000000000000021
:04068200000157001C
:101C0600AF1F7E007D007B01020423E55775F005BA
:021C1600A42206
:10118600E4F521F522F523F522121C112448F8E690
:101196002522F521121C112449F8E6FFE521D39FEB
:1011A6005013E52275F012A42496F9740035F0FA6E
:1011B6007B01121C18E4F523E523C3951F502E74FA
:1011C600642523F582E43400F583E0FF7432252399
:1011D600F582E43400F583E0FD74002523F582E40E
:1011E6003400F583E0FB121BF3052380CB7F827E60
:1011F60000121BE00522E522C39407408C121C1145
:10120600244CF8E664017056121C11244AF8E6FED6
:1012160008E6FFD39400EE94004043EF4E601612AA
:101226001C11244AF8E6FC08E6FDAE5CAF5D12032D
:101236008AED4C70297A007964121C067A0079329C
:10124600121C06AF1F7E007D007B017A007900121A
:1012560004230557E557C394034003E4F557055D9A
:06126600E55D7002055C6D
:01126C00225F
:1009BE001A0E2B090E101F2804293025072E100A97
:1009CE00270B141D0F141E152B12210D2204232983
:1009DE000E111C121C082C0626282015000A212D8B
:1009EE001D1D242326152221152B12152607061947
:1009FE002E20070211092F252E3001121507000295
:100A0E00182B122522192D0C2408092A09091A1F40
:100A1E0026290702182B070E1219190120011E0B89
:100A2E00260F160D24272F181F180E081711041D38
:100A3E002A1C0E1B0C141518232D29180222300502
:100A4E00262F05081E0F1B1F211E122F0E0E0F150F
:100A5E002D312B2A2C272B0724241B0A15151C316C
:100A6E001E23021C2E0A1100161C0C210500291D26
:100A7E000B1B0516101A2925300F061F031C021218
:100A8E000E1012032C220A161D2A1E13171C310CCF
:100A9E00191C2A23131A03200802180E111E1019EE
:100AAE002D25142D1A1A131C0C060920020E0421D2
:100ABE00051D1827200F100A1C0F0619131B1D00E9
:100ACE001B071B0408002A141B04231F0E2A131EC7
:100ADE002F31241E16102E04012F241F280410124D
:100AEE00072F130D260208190509060C0030052BD9
:100AFE00292210160D07140D191F19212228212E37
:100B0E00172E0C2C05282C302316100A1611241023
:100B1E0001092722240D0028133015072F0709007D
:100B2E00291E0B3030312E2727200500260A2F26AE
:100B3E0007271F142F170C2607132C06080E26093D
:10192A00FA7B01120423AB33AA34A93590000402CE
:10193A0002F51202DC2EFC2464F582E43400F583FD
:10194A0022AF327E00AB2CAA2DA92E22F074322CA3
:10195A00F582E43400F58322F074002CF582E43435
:10196A0000F583229000020202F59000010202F5BE
:06197A00FA7B01020423C8
:0218D3008D3353
:1018D5001533E4FDEDC39533504A12196EB4020970
:1018E5001202DC2DFF04FE8008121974C39DFF143B
:1018F500FE74642E121943E0FC74642F121943EC34
:10190500F074322E12195AE0FC74322F12195AEC67
:10191500F074002E121966E0FC74002F121966ECA3
:04192500F00D80B091
:01192900229B
:061980008B338A34893527
:101986001202DCF53912196EB4050C121936FF1263
:101996001974C39F04F539121930FF7E007464254B
:1019A60039F9E4340012192AFF7E00AD3774322566
:1019B60039F9E4340012192AFF7E00AD3874002587
:0B19C60039F9E43400FA7B010204232D
:10167E00E4FF121936FEC4540FF53BEE540FF53C41
:10168E0012196EB40A047E0180027E008E3AE4FEC8
:10169E00EEC39D504AEF653A702312193CE537129E
:1016AE001956E538121962E539F0EE853BF084E5FE
:1016BE00F070047C0180027C00AF04801E12193C85
:1016CE00E4121956E4121962E4F0EE853CF084E55A
:0F16DE00F070047C0180027C00AF040E02169EA7
:0116ED0022DA
:101604009000031202F5FF75F03284E5F08DF0844A
:10161400AEF0EF540775F032A424BEF582E5F03441
:1016240009F583E5822EF582E43583F583E493FF9F
:10163400121936FE1202DCFD2E121941E537F012A2
:1016440019362D243212195AE538F01219362D2480
:1016540000121966E539F0ED2F121941E537F0ED66
:101664002F243212195AE538F0ED2F24001219668E
:0A167400E539F0900004EF02035680
:060F77008B298A2A892B58
:100F7D0012194F121974FF1202DCFEC3EF9E04F515
:100F8D00329000031202F5600EFD7C00AE5CAF5D89
:100F9D0012038AED4C70067E007F0180047E007F77
:100FAD0000EF4E70030210807536007537007538EE
:100FBD002F753900753A00753B30753C00753D0055
:100FCD00753E31AB29AA2AA92B12108112194F1285
:100FDD00196E14B40B005064900FF375F003A4C593
:100FED008325F0C58373021014021014021014022D
:100FFD001014021019021019021019021019021002
:10100D0027021027021038AD320218D312194F855E
:10101D003037853138AD2F02198012194F852F3792
:10102D00853038853139AD3202167E12194F852F34
:10103D0037853038853139AD32021604AD2F12198E
:10104D004B1202DC2464F9E4340012197AAD30122B
:10105D00194B1202DC2432F9E4340012197AAF3242
:10106D007E00AD3112194F1202DC2400F9E4340078
:03107D0012197ACB
:01108000224D
:04068600025C000012
:1017BA000010081804140C1C02120A1A06160E1E2F
:1017CA000111091905150D1D03130B1B07170F1F0F
:1017DA0000060C11161A1D1F201F1D1A16110C06C1
:1017EA0000000000000000000000000000000000EF
:1017FA00201F1D1A16110C0600FAF4EFEAE6E3E1BF
:10180A0000000000000000000000000000000000CE
:10068A000119006040025000000000000000000054
:10069A000000000000000000000000000000000050
:1006AA000000000000000000000000000000000040
:1006BA000000000000000000000000000000000030
:1006CA00000000000000006040021000000000006E
:1006DA000000000000000000000000000000000010
:1006EA000000000000000000000000000000000000
:1006FA0000000000000000000000000000000000F0
:10070A000000000000000000000000011A000118AB
:10071A0000041B0000000010080000000000000098
:09072A00000000000000000000C6
:1016EE0025E02410F582E43402F583EEF0A3EFF04A
:1016FE00E52225E02450F582E43402F58322E5222A
:10170E0025E02410F582E43402F58322120378AA30
:10171E0006AB0774FA2525F58274173524F583E494
:10172E0093FF3395E0FE22C3952BE52A6480F8746F
:10173E00809822E0FCA3E0FDFFAE04020378E521D1
:0C174E009017BA9322E52A648094802250
:10074D00E4F521F522F523F524F525F526F527F514
:10075D0028F529F52AF52BF521121B5D12174C12E0
:10076D001700EEF0A3EFF012174CFF121700E0FC8C
:10077D00A3E0FDE561FBC3ED9B7480F8EC6480980C
:10078D005008EF121700E4F0A3F012174C121700E7
:10079D00C083C082E0FEA3E0A819088005C333CE54
:1007AD0033CED8F9FFD082D083EEF0A3EFF0E52160
:1007BD0012170EE4F0A3F00521E521C39420409912
:1007CD00900254E0FEA3E0FF7C007D201203DF8E3B
:1007DD002A8F2B7407121735500EE52B940812171C
:1007ED00535005751901802E7404121735500EE5FE
:1007FD002B940612175350057519028019C37402F4
:10080D00121736500EE52B94041217535005751917
:10081D00038003751904E4F521E4F524F525F5228B
:10082D00AF217401A807088002C333D8FCF523E576
:10083D00228523F08420E0030209391216FEE0F52B
:10084D0026A3E0F52712170CE0F528A3E0F529748F
:10085D00DA2525F5827417121729AC26AD27121744
:10086D001AAC28AD29120378C3EF9BFFEE9AFE1246
:10087D00170CEEF0A3EFF074DA2525F5827417123C
:10088D00172912171AAC26AD27120378EF2BFFEE9E
:10089D003AFE1216FEEEF0A3EFF0C374049521FF9D
:1008AD0074017E00A807088005C333CE33CED8F976
:1008BD002525F525EE3524F524C3E5229523F523CD
:1008CD00121700E0F526A3E0F527E52312170EE039
:1008DD00F528A3E0F52912170CE0FEA3E02529FF6A
:1008ED00E5283EFEE5231216EEE0FEA3E02527FFE8
:1008FD00E5263EFEE523121700EEF0A3EFF01217EA
:10090D000CE0FEA3E0FFC3E5299FFFE5289EFEE571
:10091D00221216EEE0FEA3E0FFC3E5279FFFE526BA
:10092D009EFE1216FEEEF0A3EFF08005E4F524F521
:10093D00250522E5226420600302082D0521E5210D
:10094D0064056003020826E4900210F0A3F0900203
:10095D0050F0A3F0F518F51AF51EF51DF51CF51B55
:10096D00752101E52114F522E52112170E1217410B
:10097D00AA06AB07E521121700121741EF2BEE3A2D
:10098D00FF74082522F8A60774082522F8E6C394FB
:10099D00035004E4F6800316161674082522F8E6B3
:1009AD00FFD3951840028F180521E521641170B30E
:0109BD002217
:101AB400EF602EE51A6F60298F1AAC1AE412013117
:101AC400C004C005C006C007AC18E4120131D0033D
:101AD400D002D001D0001200118F1E8E1D8D1C8CDF
:021AE4001B22C3
:101A4D008F607F6F7E127D837C3AAB1EAA1DA91C11
:101A5D00A81B1200AE50037F002274082560F8E623
:101A6D00FCE4120131AB1EAA1DA91CA81B1200110A
:041A7D0012016522CB
:030733000161233E
:0A07360041029000015E00015F0027
:0C1C29007B01120423AF1F7E007D00220F
:10150300900291E0FF74FFF0EF24FE600D1460334E
:1015130024F8603724FC605880677587020000E474
:10152300F55F900290F0F55EAF1FFEFD7A007964DF
:10153300121C297A007932121C297B017A00790066
:10154300020423E55F703A755F0122E55F64017071
:1015530030900290E004F0E55E7009E0D3942140FE
:1015630020E4F022900290E0D394224014E4F0228D
:10157300E4900290F0E55E60047F0080027F018FBB
:011583005E09
:011584002244
:10181A00AB29AA2AA92B90000422AB2CAA2DA92E07
:10182A001202F5FF75F00684F52FEFFDE52F75F02E
:10183A0006A4FFC3ED7D039FFFE495F0FE7C001232
:10184A00038AEF22AB29E52B240CF9E4352AFA9016
:10185A00000222FAEF120356AB2CAA2DA92E22253A
:0F186A002FF52FAB29E52B2404F9E4352AFA22B8
:060B4E008B298A2A892B85
:100B5400900004121824121869E92402F9E43AFAFC
:100B64009000021202F554F0452F90000212185F13
:100B74009000051202F5FF75F00A84F52FEFFDE5EC
:100B84002F75F00AA4FFC3ED7D05121841121869F0
:100B9400900001E52F120356900006121824252F09
:100BA400F52F9000071202F5FF75F00684F530EF7B
:100BB400FDE5301218382530F530452FFF12186D39
:100BC400E92402F9E43A90000412185D900002123C
:100BD40002F5B40D004003020C6A900BE5F82828D6
:100BE40073020C0C020C13020C1B020C23020C2AC1
:100BF400020C31020C38020C3F020C46020C4D026E
:100C04000C54020C5B020C6212181AE4020C6712F8
:100C1400181A7403020C6712181A7401020C671272
:100C2400181A7404803D12181A7402803612181AA5
:100C34007405802F12181A7408802812181A740662
:100C4400802112181A7409801A12181A7407801352
:100C540012181A740A800C12181A740C80051218CF
:100C64001A740E1203561218621202DCAB29AA2A55
:100C7400A92B90000C12185F9000011202F5FFAB33
:100C840029E52B240CF9E4352A90000112185D9013
:100C940000031202F514601314601714601B14602F
:100CA4001F2404702312184EE4801A12184E740183
:100CB400801312184E7402800C12184E74038005AF
:080CC40012184E7404120356CD
:010CCC002205
:081C35000000000000000000A7
:101C18009000031202F57008E4F5287D64121A1981
:011C28002299
:101B160078217C007D007BFF7A1C79357E007F086A
:101B26001202B6752C00752D00752E217B017A00E8
:051B36007996020B4E40
:101B3B00E47862F6121B7FE47862F6E4FBFDFF1299
:101B4B001BF3786206E6C394FF40F07F107E2702FA
:021B5B001BE08D
:101BCD0053CAEF43C91075BC0475DE0F43BC804387
:031BDD00BC4022E7
:101B5D00E4FFFEE5BC30E5FB53BCDFAFBDEF75F038
:101B6D0004A4FFAEF0E5BEC413135403420743BCF7
:011B7D004027
:011B7E002244
:101BE000E4FDFCC3ED9FEC9E5008000DBD00010C10
:021BF00080F182
:011BF20022D0
:101B7F00E4F52143B20853B1F7C2B3F5217FC87E14
:0D1B8F0000121BE00521E521C3943240F057
:011B9C002226
:100CCD008F26E52630E713D2B3000000007F017EAA
:100CDD0000121BE0C2B300008013D2B3000000006D
:100CED000000C2B300007F017E00121BE0E526303C
:100CFD00E613D2B3000000007F017E00121BE0C29C
:100D0D00B300008013D2B3000000000000C2B30096
:100D1D00007F017E00121BE0E52630E513D2B30003
:100D2D000000007F017E00121BE0C2B300008013A3
:100D3D00D2B3000000000000C2B300007F017E00AE
:100D4D00121BE0E52630E413D2B3000000007F0152
:100D5D007E00121BE0C2B300008013D2B30000006E
:100D6D00000000C2B300007F017E00121BE0E526EB
:100D7D0030E313D2B3000000007F017E00121BE0B0
:100D8D00C2B300008013D2B3000000000000C2B354
:100D9D0000007F017E00121BE0E52630E213D2B386
:100DAD00000000007F017E00121BE0C2B300008036
:100DBD0013D2B3000000000000C2B300007F017E1B
:100DCD0000121BE0E52630E113D2B3000000007FD6
:100DDD00017E00121BE0C2B300008013D2B30000ED
:100DED0000000000C2B300007F017E00121BE0E591
:100DFD002630E012D2B3000000007F017E00121BEE
:100E0D00E0C2B3000022D2B3000000000000C2B364
:0A0E1D0000007F017E00121BE0229E
:101BF3008F248D25AF03120CCDAF24120CCDAF254E
:031C0300020CCD03
:0C074000C100015B00015800410291FF64
:101B9D00538E7F5389F0438902E4F58AF58CC28D0B
:091BAD00D2A9D288D2A8D2AF223D
:030003000215855E
:10158500C0E0C083C082C0D075D000C00730004E17
:101595007466C3955B5009E55BC394DD50028042D8
:1015A500E55BD394164003435980E558C3941F5017
:1015B5000BE559C313F559E55A13F55A755B000543
:1015C50058E5586420702DC28CC200F558E559FFC6
:1015D500EF455AF4701EE55A900291F08016D28CB0
:1015E500D200755800755900755A00755B00900258
:0F15F5009174FFF0D007D0D0D082D083D0E032F5
:03000B00020006EA
:03000600055B3265
:10000E000201DBEC5D046005E8590470030201D1C6
:10001E0012019C580460F6EC4860F2EC7004FDFE90
:10002E00FF22C860DB2481C85009C39860025006C5
:10003E000201D89850CAF582E9294B4A7005AB8265
:10004E000201C775F0007C1A7880C3EF9BEE9AED23
:10005E0099400DC3EF9BFFEE9AFEED99FDE842F03D
:10006E00DC23ACF0D0E0FFD0E0FED0E0FDAB822090
:10007E00E7101BEB60BAEC2CFCEF33FFEE33FEED1A
:10008E0033FD0201B3E803F830E705C0F075F00068
:10009E00EF2FFFEE33FEED33FD40B830E7C280AAFE
:1000AE0074F8CC6480CCC86480C8F58204604FC3F9
:1000BE00EB9FF5F0EA9E42F0E99D42F0E89C45F098
:1000CE00603C501DE5825FFFE582D313CB5BCBF422
:1000DE002B5582FB50280ABA002409B9002008804B
:1000EE001DE5825BFBE582D313CF5FCFF4C3132FE5
:1000FE005582FF50090EBE00050DBD00010CC3EB6D
:10010E009FF5F0EA9E42F0E99D42F0E89C45F060D2
:09011E0007CC4820E701B3EC22F4
:1001270075F020800E75F010800575F0087D007E53
:10013700007F003392D530D503120415EC334010FD
:10014700EF33FFEE33FEED33FDEC33FCD5F0ED225C
:0E015700E5F0247EA2D513CC92E7CDCEFF2298
:10016500EDD2E7CD33EC3392D524814006E4FFFE92
:10017500FDFC22FCE4CFCECDCC24E0501174FF80F1
:10018500EDC3CC13CCCD13CDCE13CECF13CF04708E
:07019500F030D5DE02041575
:10019C00E9D2E7C933E833F892D5EDD2E7CD33ECA9
:0701AC0033FC5002B2D52222
:1001B300EC30E7100FBF000C0EBE00080DBD0004AD
:1001C3000BEB6014A2D5EB13FCED92E7FD2274FF59
:1001D300FCFDFEFF22E480F8A2D574FF13FC7D80B2
:0301E300E480EFC6
:030000000213F0F8
:0C13F000787FE4F6D8FD758162021437A6
:1001E600E709F608DFFA8046E709F208DFFA803EFB
:1001F60088828C83E709F0A3DFFA8032E309F608E8
:10020600DFFA8078E309F208DFFA807088828C834F
:10021600E309F0A3DFFA806489828A83E0A3F60803
:10022600DFFA805889828A83E0A3F208DFFA804CDD
:1002360080D280FA80C680D4806980F280338010B4
:1002460080A680EA809A80A880DA80E280CA80331D
:1002560089828A83ECFAE493A3C8C582C8CCC58395
:10026600CCF0A3C8C582C8CCC583CCDFE9DEE78065
:100276000D89828A83E493A3F608DFF9ECFAA9F0E4
:10028600EDFB2289828A83ECFAE0A3C8C582C8CC3A
:10029600C583CCF0A3C8C582C8CCC583CCDFEADE53
:1002A600E880DB89828A83E493A3F208DFF980CCB5
:1002B60088F0EF60010E4E60C388F0ED2402B404AE
:1002C6000050B9F582EB2402B4040050AF23234555
:0602D60082239002367342
:1002DC00BB010689828A83E0225002E722BBFE0220
:0902EC00E32289828A83E4932253
:1002F500BB010CE58229F582E5833AF583E02250BE
:1003050006E92582F8E622BBFE06E92582F8E22207
:0D031500E58229F582E5833AF583E4932221
:10032200BB010989828A83F8E028F022500327F76B
:1003320022BBFE05F8E328F3228A838982F8E4933C
:0203420028226F
:10034400BB010689828A83F0225002F722BBFE0198
:02035400F32292
:10035600F8BB010DE58229F582E5833AF583E8F0DD
:10036600225006E92582C8F622BBFE05E92582C889
:02037600F22271
:10037800EF8DF0A4A8F0CF8CF0A428CE8DF0A42E99
:02038800FE2253
:10038A00BC000BBE0029EF8DF084FFADF022E4CC57
:10039A00F875F008EF2FFFEE33FEEC33FCEE9DEC20
:1003AA00984005FCEE9DFE0FD5F0E9E4CEFD22ED66
:1003BA00F8F5F0EE8420D21CFEADF075F008EF2FB0
:1003CA00FFED33FD4007985006D5F0F222C398FDA1
:0503DA000FD5F0EA223E
:1003DF00C2D5EC30E709B2D5E4C39DFDE49CFCEE39
:1003EF0030E715B2D5E4C39FFFE49EFE12038AC324
:1003FF00E49DFDE49CFC800312038A30D507C3E41F
:06040F009FFFE49EFE22A7
:0E041500C3E49FFFE49EFEE49DFDE49CFC22F8
:10042300EF4E6012EF60010EEDBB010B89828A83F0
:10043300F0A3DFFCDEFA2289F05007F709DFFCA9FD
:0C044300F022BBFEFCF309DFFCA9F02254
:1013FC00021BB6E493A3F8E493A34003F68001F236
:10140C0008DFF48029E493A3F85407240CC8C333F1
:10141C00C4540F4420C8834004F456800146F6DFC0
:10142C00E4800B010204081020408090044FE47EFD
:10143C00019360BCA3FF543F30E509541FFEE493B5
:10144C00A360010ECF54C025E060A840B8E493A37C
:10145C00FAE493A3F8E493A3C8C582C8CAC583CAA7
:10146C00F0A3C8C582C8CAC583CADFE9DEE780BE5F
:01074C0000AC
:00000001FF
