:10328F00AB50AA51A9520202F5AB4DAA4EA94F90CD
:10329F0000010202F525E0FFAB4DE54F2401F9E4F3
:1032AF00354EFA0202DCAB4AAA4BA94C0202DCAB48
:1032BF0057AA58A959120377AB50AA51A95222AB5A
:1032CF0039AA3AA93B0202DCAB5AAA5BA95C1203EA
:1032DF0077AB4D22AB3FAA40A9410202DCFD7C0037
:1032EF00AE6FAF701203BDED4C227B337A3379236F
:1032FF007840020011A200E433540122AB54AA55C6
:0D330F00A95622AB39AA3AA93B900004222E
:061FA5008B4A8A4B894CB7
:101FAB00E4F55512329830E01D1202DC1313135472
:101FBB001F60051232EC70067E007F0180047E00EC
:101FCB007F00EF4E70037F0022E550B40207123200
:101FDB0098C313800CE550B4010C123298131354B0
:101FEB003F1392008025123298131313541F139230
:101FFB00009000051202F5FF1232B5FED39F40048C
:10200B00D2008007EEC39F5002C20020002EE55382
:10201B00D394004018AB4AAA4BA94CE553120322A8
:10202B001202DCC395514005E5511203771232B50C
:10203B0065516004E553702ED200802AE554D39489
:10204B000040131232B5FFD395544005EF955480E1
:10205B0002E5521203771232B565526004E55470F3
:10206B0005C200755501E550B4020A123304123251
:10207B00A454FD800FE550B4011012330425E01277
:10208B0032A454FB4F1203778020123304333333C3
:10209B0054F81232A654F74F1203771232B5AB4DE8
:0C20AB00AA4EA94F900005120389AF5502
:0120B7002206
:102D6F008B4A8A4B894CE5536402702DAB57AA5896
:102D7F00A95912037790000312328F543F25E012A6
:102D8F00330B12037790000112328FFFC4540F12CE
:102D9F0032D7AA4EA94F022E18E553640170421282
:102DAF00330B746412037774501232BE9000031207
:102DBF0002F5FFC413135403D39401400BAB57AA6E
:102DCF0058A959745A1203771232C790000212028F
:102DDF00F554071232D7E54F2401F9E4354EFA8046
:102DEF0028E41232BE9000041202F512330B123295
:102DFF00C49000021202F5FF131313541F1232D79F
:102E0F00E54F2402F9E4354EFAC003C002C001AB0E
:092E1F004AAA4BA94C12046222DC
:0639C0008B348A358936C4
:1039C6008B4D8A4E894F85375085385185395285BA
:1039D6003A5375540075550075563E75570075581F
:1039E6000075593F755A00755B00755C407B007A1F
:1039F60000793B122D6F85374D85384E85394F85B9
:103A06003A50853E51853F52854053854054AB3BE5
:073A1600AA3CA93D121FA507
:013A1D002286
:0621C2008B368A378938D4
:1021C8008B4D8A4E894F853950853A51853B5285CA
:1021D8003C53755400755500755640755700755831
:1021E80000755941755A00755B00755C427B007A31
:1021F800007943122D6FE53D60411232CE540770CD
:102208003AAF3F123DC77408253EF8E6FCE41201D8
:10221800318F498E488D478C461232F98F498E4846
:102228008D478C46120165EFC3954050028F40E5FB
:102238003C7008123312E540120389754201E540EB
:1022480075F00A84FF1232CE5407FEE54075F0059A
:10225800848EF0A4FEC3E5409EF540EFD394004081
:1022680007E5408FF084F54285394D853A4E853B28
:102278004F853C5085405185415285425385425493
:10228800AB43AA44A945121FA5EF60341232CEFF12
:102298005407FEEF54F8FFEE0454074F1203771269
:1022A80032CEFF5407FEBE0517EF54F8120377E548
:1022B8003D600AE53C70061233121203897F012241
:0222C8007F0095
:0122CA0022F1
:062989008B368A37893805
:10298F00AB39AA3AA93B12329E30E01D1202DC137A
:10299F001313541F60051232EC70067E007F018006
:1029AF00047E007F00EF4E70037F0022AF3E123D8A
:1029BF00C77408253DF8E6FCE41201318F458E44BB
:1029CF008D438C421232F98F458E448D438C4212C7
:1029DF000165AE0785364D85374E85384F853950A1
:1029EF00853A51853B52853C53755400755500759A
:1029FF00563D75570075580075593E755A00755BF1
:102A0F0000755C3C7B007A00793F122D6F1232E328
:102A1F00FFC39E5011E53C1203221202DCD3953DF9
:102A2F004029E53D8022EFD39E40201232E3FFD3B1
:102A3F00953C4005EF953C8002E53E12037712323C
:0D2A4F00E3C3953E5005E53E1203777F017D
:012A5C002257
:1004FE00606400C800000000000000000000000062
:10050E0000000000000000000000000000000000DD
:10051E0000000000000000000000000000000000CD
:10052E0000000000000000000000000000000000BD
:10053E0000000000000000000000000000000000AD
:10054E00000000000000000000000000000000009D
:10055E000000000000000000606400640000000065
:10056E00000000000000000000000000000000007D
:10057E00000000000000000000000000000000006D
:10058E00000000000000000000000000000000005D
:10059E00000000000000000000000000000000004D
:1005AE00000000000000000000000000000000003D
:1005BE00000000000000000000000000000000002D
:1005CE006064000000000000000000000000000059
:1005DE00000000000000000000000000000000000D
:1005EE0000000000000000000000000000000000FD
:1005FE0000000000000000000000000000000000ED
:10060E0000000000000000000000000000000000DC
:10061E0000000000000000000000000000000000CC
:10062E000000000000000000608C012C00000000A3
:10063E0000000000000000000000000000000000AC
:10064E00000000000000000000000000000000009C
:10065E00000000000000000000000000000000008C
:10066E00000000000000000000000000000000007C
:10067E00000000000000000000000000000000006C
:10068E00000000000000000000000000000000005C
:10069E00000000000000000000000000000000004C
:1006AE00000000000000000000000000000000003C
:0B06BE000000000000000000011F32DF
:103C3A00AF821204B7E51FF582758300E52F7D0078
:103C4A0075F032A424C8F9740035F0FA7B017E00BD
:103C5A0022E92553F9EE3AFAAF821204B7E554F590
:103C6A008275830022F583E5822DF582E43583F59A
:023C7A008322A3
:103CF600EF75F032A424C8F582E43400123C6FEB71
:103D0600F0EF75F032A42464F582E43400123C6FBF
:103D1600E555F0EF75F032A42400F582E434001284
:063D26003C6FE556F0229F
:103F1D008F2FE51FF582758300EF123C48123C3A56
:083F2D00123C3AAF820204B716
:103C7C008F528D538B54123C67AD55EF123C4A1248
:103C8C003C5BAD56E55275F032A42464F974001215
:103C9C003C53123C5BAD57E55275F032A42400F94D
:103CAC007400123C53E92553F9EE3AFAAF82020440
:013CBC00B750
:0306C900017100BC
:101D37008F33AB2DAA2EA92F9000021202F5FFAE0A
:101D470071EEC313547FFEEFD39E22E5322403F9CD
:101D5700E43531853039F53A893B753C0285333DA9
:101D670085343EAB2DAA2EA92F22AB30E5322403B2
:101D7700F9E43531FAE92401F9E43AFA0202DCE53B
:101D8700322403F9E43531853039F53A893B753C1E
:101D970001E4F53DF53EF53FAB2DAA2EA92F22E52F
:101DA700322403F9E43531853037F538893922ABE8
:101DB70039AA3AA93B9000021202F5540F75F003B5
:101DC700A42285303985313A85323B753C0122ABF7
:101DD70030E5322403F9E435312285303985313A4B
:101DE70085323B753C0122E5322403F9E435318520
:101DF7003039F53A893BE4F53C22F583E493AB525D
:101E0700AA53A954229000021202F5C4540F75F088
:101E17000AA4FFAEF04E22F583E493AB36AA37A9A6
:101E27003822AC6FAD70CFCDCFCECCCE1203BDED87
:101E37004C22753D0185333E85343F22AB55AA566A
:101E4700A95790000122753D01E4F53E229000025A
:101E5700EE020389853039F53A893B221202F5549F
:101E67000F045407FF22E4F53D753E0122AB27AA74
:041E770028A929224B
:10373F008B368A378938AB39AA3AA93B121E0C60EF
:10374F0005121E29705DAB39AA3AA93B90000212EF
:10375F001E63E92402121D7F54F04F120377E53CDC
:10376F006010121DB6246CF582E4343B121E1E123B
:10377F000377E53D6013121DB6246DF582E4343BEB
:10378F00121E1E900001120389E53E6013121DB632
:10379F00246EF582E4343B121E1E90000212038940
:0637AF007F01227F0022D1
:0612BB008B2D8A2E892F05
:1012C100E4F533121D714401120377AB30AA31A941
:1012D100321202DC547FB40E00400302145090120B
:1012E100E6F828287302131002132902132C0213A3
:1012F1002F0213460213570213790213960213B0F9
:101301000213D30213ED02140F021426021437E95B
:101311002403F9E43A121D7B54FE120377121D399E
:1013210050030214580214200213850213A2121D45
:10133100A6753A01121D9F1239C0121D37500302C2
:101341001458021420121D861221C2121D37500397
:10135100021458021420121D7154FE120377121D3B
:10136100C9753D01753E01121D9F12373F121D3790
:101371005003021458021420121DC9121E4D121DD1
:101381009F12373F121DA6E4F53A121D9F1239C074
:101391008F33021458121DC9121E4D121D9F123790
:1013A1003F121DEE121D991221C28F3302145812E1
:1013B1001DC9121E6D121D9F12373F121DA6753ACF
:1013C10001121D9F1239C0121D3750030214580219
:1013D1001420121DC9121E6D121D9F12373F121DBE
:1013E100861221C2121D37406E02142012145B12A4
:1013F1001DAE753A01121D9F1239C0121DA6E4F5EA
:101401003A121D9F1239C0121D39404B8011121D15
:10141100A6753A02121D9F1239C0121D37403812AB
:101421001E5402145812145B121DAEE4F53A121D3B
:101431009F1239C08021121DA6753A02121D9F12FA
:1014410039C08F33121DEE121D991221C28008126C
:091451001D7154FE120377AF3344
:10145A0022E5322403F9E43531853037F538893904
:10146A00753A02AB2DAA2EA92F1239C08F33E53255
:07147A002403F9E4353122DF
:06161A008B2D8A2E892FA2
:10162000E4F535121DD6121D7B4401120377AB3051
:10163000AA31A9321202DC547F24F2B40B00400319
:1016400002178F90165175F003A4C58325F0C5834A
:101650007302167202168E0216910216940216B3C7
:101660000216DD0216FD02172002174E0217640251
:101670001778E92403F9E43A121D7B54FE1203772C
:10168000121D6A121D3F500302179A02175E0216BE
:10169000E9021709121DD8121E5B753C01121D6468
:1016A0001229898F35121D6A121D3F500302179AA5
:1016B00002175E121DD6121D7B54FE120377121DF7
:1016C000E1753D01753E01121D6A12373F8F3512DB
:1016D0001D6A121D3F500302179A02175E121DE188
:1016E000121E4D121D6A12373F121DD8121E5BE4E6
:1016F000F53C121D641229898F3502179A121DE1DB
:10170000121E4D121D6A12373F121DD88530391234
:101710001DF9121E39121D6A1221C28F3502179A45
:10172000121DE1121E6D121D6A12373F121DD8855F
:101730003039F53A893B753C01121E39121D6A1287
:1017400021C28F35121D6A121D3F404E8010121D9E
:10175000521229898F35121D6A121D3F403C121EFC
:101760005402179A121D5212179D121E5BE4F53C8B
:10177000121D641229898022121D5212179D853074
:1017800039121DF9121E39121D6A1221C2800B1264
:0C1790001DD6121D7B54FE120377AF35EE
:0F179C00221229898F35E5322403F9E4353122F1
:0630DE008B248A258926DF
:1030E400AB27E5292403F9E43528FA9000041202F9
:1030F400F5F52CAF71EFC313547FFFE52CD39F403C
:10310400028F2C900004E52C120389121E74120203
:10311400DCFFC4131313540130E01C121E0C6005B1
:10312400121E297012121E74900001121E63121DC9
:103134007C54F04F120377121E741202DC547FC3C6
:10314400940E40158B308A318932852A33852B348D
:10315400AB24AA25A92602161A852730852831858D
:0B3164002932AB24AA25A9261212BBB9
:01316F00223D
:103AD2008B528A538954121E43121DBF246CF582E5
:103AE200E4343B121E01120377121E43121DBF243F
:103AF2006DF582E4343B121E01900001120389121B
:103B02001E43121DBF246EF582E4343B121E019047
:103B12000002120389121D3F4006121E05121E5496
:013B22002280
:103B6C000064640B646411646421646443646432AF
:103B7C0064644C64640000640064642164644364A1
:103B8C00640445642C6462326464096464214C509E
:103B9C005364370B6464214C375431371164641609
:083BAC004B384C646400006416
:103D9400900002AB52AA53A9540202F575F0FFA495
:103DA400FFAEF07C007D640203BDFE9000021202AF
:103DB400F5FD7C001203AB7D640203BDC374649FF4
:033DC400FFE422F7
:0624DA008B528A53895465
:1024E0001202DC75F006A4FBAAF07C007D64FFAE4E
:1024F000021203BD8F61AF03E56175F064A4FEC3F2
:10250000EF9EF562C394055003E4F562900001125A
:102510003D97FF123DC09400123DAE8F63900001C5
:102520001202F5FFE5628FF0123DA3123DC09E122C
:102530003DAE8F649000011202F5FD7C00C374640F
:102540009562FFE49400FE123DB8123DC09EFE90DD
:1025500000021202F5FB123DB5E56175F00684E557
:10256000F014601614602014602914602E14603773
:102570002405703E8B5E8F5F800885645E123D94FB
:10258000F55F856360802B85635E123D94F55F8FF8
:1025900060801F85635E85645F80058F5E85635FF5
:1025A000123D94F560800B123D94F55E85635F8566
:1025B0006460E55E123DA0AB55AA56A957EF120321
:1025C00077E55F123DA0AB58AA59A95AEF120377DD
:0F25D000E560123DA0AB5BAA5CA95DEF0203774B
:0A06CC0005650000000000016A004F
:103CBD00F583E5822523F582E43583F583E022E55E
:103CCD002175F014A422FFAEF0242CF974013EFAF4
:103CDD007B0122243FF582E43401F583E022243C6C
:093CED00F582E43401F583E022C4
:1022CB00E4F521F522F523F522E56A75F005A42442
:1022DB0065F8E62522F521E56A75F005A42466F874
:1022EB00E6FFE521D39F5079123CCC123CD3C003BF
:1022FB00C001742F2FF974013E8B27F52889291201
:10230B003CCC123CE0F52A123CCC2438F582E43468
:10231B0001F583E0FF123CCC2439F582E43401F55E
:10232B0083E0C39F04F52BD001D0031230DE123CA7
:10233B00CC123CD3C003C00174382FF974013E8B0F
:10234B0027F5288929742F2FF974013E8B2AF52B39
:10235B00892C123CCC123CE0F52DD001D003123469
:10236B00BDE4F523E523C3951F5042123CCC123C30
:10237B00EBFE75F032A424C8F582E43400123CBDA8
:10238B00FFEE75F032A42464F582E43400123CBDF8
:10239B00FD123CCC123CEB75F032A42400F582E428
:1023AB003400123CBDFB123F5B052380B77F967E4A
:1023BB0000123F480522E522C3940750030222D4A2
:0823CB000570E5707002056F5A
:0123D30022E7
:103E2A00EF75F005A42465F8A605EF75F005A4243E
:103E3A0066F8A603EF75F005A42467F8A63308A66A
:0C3E4A0034EF75F005A42469F8A63522B9
:103E56007E007F057D007B007A0079651204B77EBF
:103E6600007F8C7D007B017A01792C1204B7E4FF78
:083E7600123F1D7F01023F1DF8
:1017AB001A0E2B090E101F2804293025072E100A9C
:1017BB00270B141D0F141E152B12210D2204232988
:1017CB000E111C121C082C0626282015000A212D90
:1017DB001D1D242326152221152B1215260706194C
:1017EB002E20070211092F252E300112150700029A
:1017FB00182B122522192D0C2408092A09091A1F46
:10180B0026290702182B070E1219190120011E0B8E
:10181B00260F160D24272F181F180E081711041D3D
:10182B002A1C0E1B0C141518232D29180222300507
:10183B00262F05081E0F1B1F211E122F0E0E0F1514
:10184B002D312B2A2C272B0724241B0A15151C3171
:10185B001E23021C2E0A1100161C0C210500291D2B
:10186B000B1B0516101A2925300F061F031C02121D
:10187B000E1012032C220A161D2A1E13171C310CD4
:10188B00191C2A23131A03200802180E111E1019F3
:10189B002D25142D1A1A131C0C060920020E0421D7
:1018AB00051D1827200F100A1C0F0619131B1D00EE
:1018BB001B071B0408002A141B04231F0E2A131ECC
:1018CB002F31241E16102E04012F241F2804101252
:1018DB00072F130D260208190509060C0030052BDE
:1018EB00292210160D07140D191F19212228212E3C
:1018FB00172E0C2C05282C302316100A1611241029
:10190B0001092722240D0028133015072F07090082
:10191B00291E0B3030312E2727200500260A2F26B3
:10192B0007271F142F170C2607132C06080E260942
:10148100900004AB3FAA40A9410202F5900005ABD0
:101491003FAA40A9410202F5900004AB3FAA40A92E
:1014A100411202F5FF22120377900005AB3FAA40DB
:1014B100A9410202F5AB3CAA3DA93E9000041202EB
:1014C100F5FF22120377900005AB3FAA40A9410224
:1014D10002F5FD7C00AE6FAF701203BDED4C2290A2
:1014E1000006AB3FAA40A9410202F5AB3CAA3DA9C7
:1014F1003E0202F574011203449000050202F5C494
:10150100540FFF9000060202F5F583E5822548F5A8
:1015110082E43583F583E022E92406F9E43AFA12FC
:1015210002DC540F0203771202DCFDE4F555F55697
:10153100F55722AB27AA28A9290202F5FA1202DCE3
:10154100FFC4540FFEEF540FFFEE04540FC454F0C8
:101551004F229000030202F5AB36AA37A93822FFC9
:101561009000010202F5AB3CAA3DA93EE4020389C9
:101571009000020202F5AB36AA37A9382285394319
:10158100853A44853B4522FA1202DCFF54F0FEEF16
:1015910004540F4E22EF75F032A42464F582E43432
:1015A1000022AB3CAA3DA93E2285324785334885BE
:1015B1003449853D4A2275F032A424C8F582E434C9
:1015C100002275F032A42400F582E4340022E924DB
:1015D10006F9E43AFA0202DCAB3FE5412406F9E4FC
:1015E100354022AB3FE5412406F9E43540228544EC
:1015F10055854556AB43AD492275F003A4C58325F6
:10160100F0C58322AB3CAA3DA93E22AB3FAA40A92B
:091611004122F583E582254F22F8
:081E7B008D428B3F8A40894132
:101E8300C20012155360051214D370067E007F0141
:101E930080047E007F00EF4E7003021FA415429062
:101EA300000612149CC4540F7030EF540FFFBF0F81
:101EB300081215CF54F01203771215D91215881290
:101EC30014C4121501540FC39F400F1215CF44F0D1
:101ED30012037754F0120377D200200044900006D7
:101EE3001214CAFF540F7039EFC4540FFFBF0F030E
:101EF3001215191215D912153D1214C4121500FE2C
:101F0300C4540FC39F4008121519440F12037712CC
:101F130014C7C4540FD394004007E4F546F545F5C0
:101F230044E543AB3FAA40A94170071202DCF547E1
:101F33008005121561F54712149985455585465656
:101F4300AB44AD47123CF6E4F549E549C39542502D
:101F530050E543AB3FAA40A941700D121561C395EB
:101F630049F54714F548800A1202DC2549F5470470
:101F7300F5481214991215B712150AF5441215965D
:101F830012150AF5451214BC1215C312150AF546AB
:101F9300854555F556AB44AD47123CF60549021F3E
:011FA3004DF0
:011FA400221A
:083034008D3F8B3C8A3D893E73
:10303C0012155360051214D370067E007F018004B4
:10304C007E007F00EF4E70030230DD900002121400
:10305C00EC640370111214FAB40109E4F542F54161
:10306C00F540801E80109000051214ECB40113E49E
:10307C00F542F541F540121504121560C39FF54356
:10308C00800A121504FF1202DC2FF5431215A390CF
:10309C0000067401120344121504C3953F401F121D
:1030AC0015A3900006E41203891214FA60047F0041
:1030BC0080027F011215A3900005EF1203891215EF
:1030CC00A31214BC854155854256AB40AD43123C0E
:0130DC00F6FD
:0130DD0022D0
:0827BD008D428B3F8A408941E7
:1027C500C200121571B406047F0180027F008F4795
:1027D50085434885444985454A9000031214AD60F8
:1027E500051214D370067E007F0180047E007F00F1
:1027F500EF4E70030228A2AB3FAA40A9411214BCB8
:10280500121528AB42123C7CE4F546E546C39542D9
:1028150040030228A2A200E433654770311215E493
:102825001215881214A7121501540FC39F400A12DE
:10283500151954F0120377B2001214AA540FD39449
:1028450000403B854843854944854A4580301215FB
:10285500E412153D1214A7121500FEC4540FC39FB0
:10286500400A12151954F0120377B2001214AAC4C3
:10287500540FD394004007E4F545F544F543AB3FC9
:10288500AA40A9411214BC1202DC2546FD85445517
:0D289500854556AB43123CF605460228105F
:0128A2002213
:083433008D3F8B3C8A3D893E70
:10343B001214FAF54312155360051214D3703F1290
:10344B0014B6121528AB3F123C7CAE6FAF707C00EC
:10345B007D321203BDE57054079017AB75F0321235
:10346B000456E475F032A42583F583E5822DF582AD
:10347B00E5833CF583E493853FF08485F043121498
:10348B00B61214FAFE1202DC2E1234B01214B6125B
:10349B0002DC25431234B0AB3CAA3DA93E9000059B
:0534AB00E54302038966
:0D34B000FD854155854256AB40123CF62289
:0628A3008B3C8A3D893EDA
:1028A90012155360051214D370067E007F0180044F
:1028B9007E007F00EF4E700302297E121605121565
:1028C90071B40817121504121560FEC39FF5498EDD
:1028D9004A6E601CE54904F54A8015121504FF1279
:1028E90002DCFE2FF5498E4A6E6005E54914F54A6A
:1028F9001216051214BCE4F555F556FBAD4A12291A
:102909007F1214BC1215EF12297F9000061214F5DC
:10291900FFC3E5429F121503C39F40599000061259
:1029290015679000051214F5C395424006900005FD
:10293900121567853F558540568541577B007A00BA
:102949007946123AD2755500755600755743755830
:1029590000755900755A44755B00755C00755D45D5
:102969007B007A0079461224DA1216051214BC1279
:0529790015EF123CF611
:0B297E0022123CF6AB3CAA3DA93E2211
:102B28008F328D338B34121559121571FF14B40975
:102B3800004003022BD5902B451215FA73022B6027
:102B4800022B60022B87022B87022B98022B9802FC
:102B58002BA9022BBA022BBAC003C002C001EF6432
:102B68000260047F0180027F008F438532448533F1
:102B780045853446D001D002D003AD35021E7B1204
:102B88001559853240853341853442AD350230349C
:102B9800121559853243853344853445AD350227AE
:102BA800BD121559853240853341853442AD350211
:102BB800343385393F853A40853B418535428532F6
:102BC800438533448534451215590228A3121559F3
:102BD8001214BC1202DCFD853255853356853457F4
:062BE800AB35123C7C221B
:080A0C008D428B3F8A408941B5
:100A1400121571FF640E6009EF64106004EFB412E4
:100A240003D38001C3920130000C121481FF12150C
:100A340028AB42123C7C900003121484600512140B
:100A4400D3701E12148DFFC3954A5007900005748D
:100A540001800BEFD3954A400890000574FF120300
:100A64004430012A12160C1202DCF54EF550121411
:100A7400FAFFD394004006E5502F14F55012148D5C
:100A8400FE6542603B1214BCE55004FD80279000D3
:100A940001121490F54EF5501214FAFFD39400404D
:100AA40008EF14FFE5509FF550121481FF1202DC89
:100AB400FD1214FAFEC3E5429EFB12152C123C7C77
:100AC40020001112148D7006F549F548F5471214EB
:100AD400BC120C4DE4F54212148DFFD39400400473
:100AE400EF14F542E4F551E551C39542505420000A
:100AF4005130010CC3E5509551F54E14F54F800962
:100B0400E5502551F54E04F54F121481FF1215B727
:100B1400121613121510F547121596121613121504
:100B240010F5481214BC1215C3121613121510F541
:100B340049854855F556AB47AD4E123CF605510272
:100B44000AEBE5467003020C4C20003685435585BC
:100B540044568545577B007A00794B123AD2755535
:100B640000755600755747755800755900755A48F1
:100B7400755B00755C00755D497B007A00794B12EA
:100B840024DA1214E0FF1214FAFEC39F403E30012F
:100B9400131202DCF54EEED394004021E54E2E14E0
:100BA400F54E80199000011214E3F54EEED3940033
:100BB400400B1214FA14FFC3E54E9FF54E12148D28
:100BC4009000061203891214BC120C4D1214E0702A
:100BD40007900006041203899000063001101202E7
:100BE400F5FF1202DC2F14F54E04F54F800E1202AD
:100BF400F514121560C39FF54E14F54F12160C121E
:100C0400155375F00AA4FFAEF04E6011AC6FAD70D1
:100C1400CFCDCFCECCCE1203BDED4C700B12160C43
:100C240090000674FF120344121481FFE4F555F595
:100C340056FBAD4F123CF6121481FF854855854989
:080C440056AB47AD4E123CF621
:0F0C4C0022854855854956AB47AD4E123CF622DE
:083895008D428B3F8A408941FE
:10389D001214FAF54712155360051214D37009E589
:1038AD00468542F08485F047AB3FAA40A9411214EA
:1038BD00BC121528AB42123C7CAB3FAA40A9411269
:1038CD0014BC1214FAFE1202DC2E1238ED1214BCC6
:1038DD001202DC25471238ED900005E547020389F9
:1038ED00FD854455854556AB43123CF6AB3FAA408A
:0338FD00A94122BC
:0626CF008F328D338B34C5
:1026D500AF35123DC7AF3C123D2C8F3D7408253CEC
:1026E500F8E6F53E121577121571FF24F5B40B00C7
:1026F50040030227A49027011215FA73022722022C
:10270500272202275702275702275F02275F022742
:102715006C02276C02277F02277F022790E53ED3B4
:1027250094325007E4F534F533F532C003C002C0E6
:1027350001EF640C60047F0180027F008F438532C6
:1027450044853345853446D001D002D003AD3502EA
:102755001E7B12157EE4F546800612157E75460130
:102765001215AAC200800B12157E7546011215AA14
:10277500D200121577AD35020A0C12157785324352
:10278500853344853445AD350227BD12157785322D
:1027950043853344853445853E46AD35023895122B
:1027A50015771214BC1202DCFD853255853356852A
:0727B5003457AB35123C7CE8
:0127BC0022FA
:0634BD008B248A258926FC
:1034C300900001121534FF1202DCFEC3EF9E04F5D7
:1034D3003175550075560075572E7558007559008E
:1034E300755A2F755B00755C00755D30AB24AA259A
:1034F300A9261224DA900002121534C3940A401E3E
:103503008531358B368A378938852A39852B3A8533
:103513002C3B852D3CAB30AD2FAF2E0226CF853112
:1035230035852736852837852938852A39852B3AE5
:0C353300852C3BAB30AD2FAF2E122B28A7
:01353F002269
:0406D600026F0000AF
:103900000010081804140C1C02120A1A06160E1EC7
:103910000111091905150D1D03130B1B07170F1FA7
:1039200000060C11161A1D1F201F1D1A16110C0659
:103930000000000000000000000000000000000087
:10394000201F1D1A16110C0600FAF4EFEAE6E3E157
:103950000000000000000000000000000000000067
:1006DA00011900604001F80000000000000000005D
:1006EA000000000000000000000000000000000000
:1006FA0000000000000000000000000000000000F0
:10070A0000000000000000000000000000000000DF
:10071A0000000000000000604001B8000000000076
:10072A0000000000000000000000000000000000BF
:10073A0000000000000000000000000000000000AF
:10074A00000000000000000000000000000000009F
:10075A000000000000000000000000011A0001185B
:10076A0000041B0000000010080000000000000048
:09077A0000000000000000000076
:1038290025E024B8F582E43401F583EEF0A3EFF046
:10383900E52225E024F8F582E43401F58322E52226
:1038490025E024B8F582E43401F583221203ABAAFA
:1038590006AB0774402525F58274393524F583E4D0
:1038690093FF3395E0FE22C3952BE52A6480F87413
:10387900809822E0FCA3E0FDFFAE040203ABE52142
:0C3889009039009322E52A64809480228C
:10079B00E4F521F522F523F524F525F526F527F5C6
:1007AB0028F529F52AF52BF521123EC412388712AC
:1007BB00383BEEF0A3EFF0123887FF12383BE0FC2A
:1007CB00A3E0FDE572FBC3ED9B7480F8EC648098AD
:1007DB005008EF12383BE4F0A3F012388712383B85
:1007EB00C083C082E0FEA3E0A819088005C333CE06
:1007FB0033CED8F9FFD082D083EEF0A3EFF0E52112
:10080B00123849E4F0A3F00521E521C39420409967
:10081B009001FCE0FEA3E0FF7C007D201204128E11
:10082B002A8F2B7407123870500EE52B9408123850
:10083B008E5005751901802E7404123870500EE518
:10084B002B940612388E50057519028019C3740249
:10085B00123871500EE52B940412388E5005751911
:10086B00038003751904E4F521E4F524F525F5223D
:10087B00AF217401A807088002C333D8FCF523E528
:10088B00228523F08420E003020987123839E0F532
:10089B0026A3E0F527123847E0F528A3E0F52974E5
:1008AB00202525F5827439123864AC26AD27123811
:1008BB0055AC28AD291203ABC3EF9BFFEE9AFE128A
:1008CB003847EEF0A3EFF074202525F5827439122A
:1008DB003864123855AC26AD271203ABEF2BFFEE65
:1008EB003AFE123839EEF0A3EFF0C374049521FFF2
:1008FB0074017E00A807088005C333CE33CED8F928
:10090B002525F525EE3524F524C3E5229523F5237E
:10091B0012383BE0F526A3E0F527E523123849E032
:10092B00F528A3E0F529123847E0FEA3E02529FFBF
:10093B00E5283EFEE523123829E0FEA3E02527FF3C
:10094B00E5263EFEE52312383BEEF0A3EFF012381E
:10095B0047E0FEA3E0FFC3E5299FFFE5289EFEE5E8
:10096B0022123829E0FEA3E0FFC3E5279FFFE5260F
:10097B009EFE123839EEF0A3EFF08005E4F524F576
:10098B00250522E5226420600302087B0521E52171
:10099B0064056003020874E49001B8F0A3F09001C1
:1009AB00F8F0A3F0F518F51AF51EF51DF51CF51B5F
:1009BB00752101E52114F522E52112384912387C05
:1009CB00AA06AB07E52112383B12387CEF2BEE3A27
:1009DB00FF74082522F8A60774082522F8E6C394AD
:1009EB00035004E4F6800316161674082522F8E665
:1009FB00FFD3951840028F180521E521641170B3C0
:010A0B0022C8
:103DC700EF602EE51A6F60298F1AAC1AE4120131E1
:103DD700C004C005C006C007AC18E4120131D00307
:103DE700D002D001D0001200118F1E8E1D8D1C8CA9
:023DF7001B228D
:103D2C008F3F7F6F7E127D837C3AAB1EAA1DA91C30
:103D3C00A81B1200AE50037F00227408253FF8E642
:103D4C00FCE4120131AB1EAA1DA91CA81B12001108
:043D5C0012016522C9
:0307830001721CE4
:093FA800123F04123F35023EA253
:100C5B00FF2F8900050000010000000000FF2F8915
:100C6B0001000000010000000000FF20B800060496
:100C7B0000040001020300FF20B80100040004007F
:100C8B0001020300FF20B800050400040405060759
:100C9B0000FF20B801000400040405060700FF3321
:100CAB00A800050822040001020300FF33A8000579
:100CBB000538040001020300FF33A80100082204D9
:100CCB000001020300FF33A80100053804000102F4
:100CDB000300FF33A801000800040405060700FF0A
:100CEB0033A801000300040405060700FF33A80026
:100CFB00020451040001020300FF33A8000201EEBD
:100D0B00040001020300FF33A8000202EE040001FD
:100D1B00020300FF33A8010003510400010203008A
:100D2B00FF33A8010001EE040405060700FF33A8FA
:100D3B00010002EE040001020300FF3BB400030AB2
:100D4B0022020001000000FF3BB400030A3802003E
:100D5B0001000000FF3BB401000A22020001000069
:100D6B0000FF3BB401000A38020001000000FF2A1B
:100D7B005D00082100020001000000FF2A5D010058
:100D8B002100020001000000FF2CB0000B0000014D
:100D9B000000000000FF2CB001000000010000006B
:100DAB000000FF3BF700030122020001000000FFDF
:100DBB003BF700030138020001000000FF3BF70185
:100DCB00000122020001000000FF3BF70100013887
:100DDB00020001000000FF0EAA0005010004000143
:100DEB00020300FF0EAA0100010004000102030030
:100DFB00FF0EAA00000100010900000000FF0EAA6F
:100E0B0000050100040405060700FF0EAA010001FE
:100E1B0000040405060700FF0EAA000501000108E7
:100E2B0000000000FF0EAA010001000108000000F5
:100E3B0000FF37B500020400040001020300FF3776
:100E4B00B501000400040001020300FF23D40008D5
:100E5B000A00020001000000FF23D401000A000277
:100E6B000001000000FF23D400020100010100007B
:100E7B000000FF23D401000100010100000000006D
:100E8B000000000001020F0304050006070800091B
:0F0E9B000A0B000C0D0E0000000000000000000C
:080786004502380000000000EC
:103A7C00E0FFC4540FFEEF540FFFEE04540FFEC4CE
:103A8C0054F04FF0E0FFC4540FD39403229002384B
:103A9C00E01313543F75F00DA422540FF52A900235
:103AAC003AE0540FF0A3E022900238E0FF131354D5
:103ABC003F2293540FFF90023AE054F04FF02290C3
:063ACC000239E0540F2254
:103D6000900238E054FEF054FDF05403F0A3123AF0
:103D7000AD440FF0540FF0A3E054F0F0540FF09066
:103D80000239E054F0440AF0437101E571540144F2
:043D9000C8F57122DF
:101BE80078227C007D007BFF7A0E79A27E007F0838
:101BF8001202B630000F7E007F8C7D007B017A01D7
:101C0800792C1204B7900239E0C4540FFD7009F51D
:101C18002AA3E0540FF0800CBD011090023AE0C4F2
:101C2800540FF52AA3E054F0F08012900239E0C472
:101C3800540FFDBD020C90023BE0123AA6540FF07F
:101C4800800EBD030B90023BE0C4123AA654F0F09C
:101C5800123AB4FE543FFD75F00DA4245EF582E5FA
:101C6800F0340CF583E493F52290023CE0FCC313B6
:101C7800540FFB75F00DEDA42463F582E5F0340CE8
:101C8800F583E5822BF582E43583F583E493F52328
:101C9800900239E0FDC4540FF524852A25EC54013F
:101CA800FCE52654FE4CF526A3E0540F25E0FCE5A0
:101CB8002654014CF526432701ED540F75F00AA46C
:101CC800547F25E0FDE52754014DF527EE543FFEEE
:101CD80075F00DA42460F582E5F0340CF583E493E7
:101CE800F52875F00DEEA42461F582E5F0340CF5C5
:101CF80083E493FE540FFDE52954F04DF529EE5485
:101D0800F0FEE529540F4EF5297B007A007922C0B0
:101D180002EF123A9D245BF582E5F0340CF58374EA
:0F1D28000193FA740293F5828A83D0020204B504
:1010D8007521FF90023DE0FFF460058F2174FFF059
:1010E800E521B4180040030212BA9010F9F8282834
:1010F800730211410211630211890211960211D380
:101108000211D30211D30211D30211D30211D30257
:1011180011D30211E50211D30211D30211D3021225
:101128006C0211D30211D30211D30212800211D31F
:101138000211D30211D30212A3900239E0FF540F17
:10114800FEEF54F0FFEE04540F4FF0540FD3940AFF
:10115800402CE054F0440AF002127C900239E0FF7F
:10116800540FFED39401400DEF54F0FFEE94015458
:101178000F4FF08009900239E054F04401F0021258
:101188007C123E56123D607F967E00023F489002D8
:1011980038E020E10F123FA8123D60900238E04489
:1011A80002021266900238E030E0055403F080092C
:1011B800900238E054034460F0900238E0FF540194
:1011C800F45401FEEF54FE4E02126690023CE044D5
:1011D80001F0E521900E8A123ABE02127C90023884
:1011E800E020E1030212BAA3E0540FF090023CE0C1
:1011F800FF20E00FC313FEEF54E1FFEE04540F2568
:10120800E04FF0123A992462F582E5F0340CF58348
:10121800E493FF90023CE0FEC313540FC39F4023A6
:10122800EE54E1F0123AB4FEEF5403FFEE04543FDB
:10123800FE25E025E04FF0123AB7C3942B4004EFA7
:101248005403F0123ACBF0123A99245FF582E5F094
:10125800340CF583E4123ABE90023CE054FEF0D21E
:10126800000212B7123ACB4410F0A3123A7C4004A1
:10127800EF540FF0C2008037123ACB4420F09002AE
:101288003BE0FF54F0FEEF04540F4EF0540FD3949C
:10129800034004E054F0F0C2008014123ACB44300A
:1012A800F090023B123A7C4004EF540FF0C2001257
:0212B8001BE831
:0112BA002211
:0E3F9000123FA81210D812079B1222CB80F508
:1025DF00ED75F014A4242DF582E43401F5837464B1
:1025EF00F0ED75F014A4242FF582E43401F583E0A7
:1025FF005480229000041202F5C313547F75F00328
:10260F00A42484F582E4343BF583E493FFED75F065
:10261F0014A4242CF582E43401F583EFF090000428
:10262F001202F5C313547F75F003A42485F582E4D9
:10263F00343BF583E493FFED75F014A4242DF5825C
:10264F00E43401F583EFF09000041202F5C3135444
:10265F007F75F003A42486F582E4343BF583E4937D
:10266F00FFED75F014A4242EF582E43401F583EF09
:10267F00F09000021202F5FF22540FC454F0FFE550
:10268F003F75F014A4229000051202F5C313547F76
:10269F00FFED75F014A4242EF582E43401F583EFD9
:1026AF00F022F583E0540F4FF0222434F582E43406
:1026BF0001F583E0222435F582E43401F583E0222D
:103A1E0012269530012912260270051225F0F02289
:103A2E00EFB401071225F04401F022122680B402F1
:103A3E00071225F04403F022EF6403703080281241
:103A4E00268070071225F04405F022EFB40107120C
:103A5E0025F04406F022122680B402071225F04407
:0E3A6E0008F022EFB403061225DF440BF0220D
:1039600012269530012B12260270071225F0440E04
:10397000F022EFB401071225F0440FF02212268046
:10398000B402071225F04403F022EF640370308084
:103990002812268070071225F04412F022EFB4019D
:1039A000071225F04413F022122680B402071225D4
:1039B000F04408F022EFB403061225DF440BF02296
:101A95009000031202F5541F33333354F812268D88
:101AA5002432F582E43401F583E054074FF0ED125A
:101AB50026882431F582E434011226B190000512FE
:101AC50002F5FF5401FEE57154FE4EF571EF54FE2B
:101AD500FFE57154014FF571E53C1226882433F575
:101AE50082E434011226B1E53D540712268D1226F3
:101AF500B954F84FF0E53E541F33333354F81226EA
:101B05008D1226B954074FF012268E1226C454C0E2
:101B15004424F012268E1226C4543FF0900005127C
:101B250002F5C313547F12268D2436F582E4340161
:101B3500F583EFF0E543540F12268D2430F582E44A
:101B45003401F583E054F04FF0A201E4335401C4AD
:101B5500333333548012268D242FF582E43401F576
:101B650083E0547F4FF0E5441226882430F582E463
:101B750034011226B19000061202F512268D243B7F
:101B8500F582E43401F583EFF09000071202F55475
:101B95000F12268D243DF582E43401F583E054F0DF
:101BA5004FF09000071202F512268B243DF582E4D2
:101BB50034011226B112268E2438F582E43401F55B
:101BC50083E540F012268E2439F582E43401F5834D
:101BD500E541F012268E243AF582E43401F583E5D9
:031BE50042F022A9
:103DF900753C01753D01753E0585323F853340852A
:103E09003441853542E4F543C201F5442212037772
:103E1900AB2FAA30A93122AB2BAA2CA92DE4F5335B
:013E29002276
:103200008D328B2F8A308931E92404F9E43AFA129D
:1032100002DCFFC313547FFDEF5401FFED540FFE9A
:1032200025E04F123E169000031202F57006900042
:10323000021203899000041202F530E004E4120344
:1032400077123E191202DC7003D38001C39201127F
:103250003E19AD32123A1EAB2FE5312403F9E435A5
:1032600030FA1202DC25E0123E169000011202F53F
:10327000FF7404D39F500CEF94075007123DF97D63
:0F3280000C8008123E19123DF97D02121A952298
:0633A8008B2B8A2C892DFD
:1033AE00E4F52E9000011202F5B40800505A903345
:1033BE00C3F82828730233DB0233E00233E502330D
:1033CE00FC0233DB0233E00233E50233FCE4F53377
:1033DE00802B123E20800F123E2075341875350159
:1033EE001234257533197534317535028015123E38
:1033FE00207534187535021234257533197534312C
:10340E00753501AD2E123200E4F533F53475350104
:07341E00AB2EFDFF023E2A68
:0E342500AD2E123200052EAB2BAA2CA92D22A3
:073FB100AB2BAA2CA92D2265
:062F89008B2B8A2C892D20
:102F8F00E4F52EE92404F9E43AFA1202DCFFC31344
:102F9F00547FFDEF5401FFED540FFE25E04F120358
:102FAF0077123FB19000031202F5700690000212E3
:102FBF000389123FB1753C01753D01753E01852EA8
:102FCF003FE4F540754131F542F543C201F5447DCB
:102FDF000A121A95123FB19000051202F5C313544D
:102FEF007FFFE52E75F014A4242EF582E43401F54D
:102FFF0083EFF09000041202F530E004E41203773F
:10300F00123FB11202DC7003D38001C39201123F51
:10301F00B1AD2E123A1EE4F533F534753501AB2EF2
:05302F00FDFF023E2A36
:073FB800AB2FAA30A9312252
:1036C1008D328B2F8A308931E92404F9E43AFA12D8
:1036D10002DCFFC313547FFDEF5401FFED540FFED5
:1036E10025E04F120377123FB89000031202F570E4
:1036F100069000021203899000041202F530E004E2
:10370100E4120377123FB81202DC7003D38001C3C5
:103711009201123FB8AD32123A1E123FB8753C0108
:10372100753D01753E0185323F85334085344185C4
:0E3731003542E4F543C201F5447D0A021A95C3
:063BB4008B2B8A2C892DE9
:103BBA00E4F52E9000011202F514600E04701FE461
:103BCA00F533753431753505800FAB2BAA2CA92D29
:103BDA00E4F533753431753506AD2E1236C1E4F588
:0D3BEA0033F534753501AB2EFDFF023E2A88
:103E7E00E53275F014A4242FF582E43401F583E0C5
:103E8E00548022AB2FAA30A93122AB2BAA2CA92DFC
:043E9E00E4F53322F2
:102E28008D328B2F8A308931E92404F9E43AFA1279
:102E380002DCFFC313547FFDEF5401FFED540FFE76
:102E480025E04F120377123E919000031202F570AD
:102E5800069000021203899000041202F530E00483
:102E6800E4120377123E911202DC7017D201122E7F
:102E7800CD9000021202F564017026123E7E4402D3
:102E8800F0801E123E911202DC64017014C201121D
:102E98002ECD9000021202F5B40106123E7E4407C0
:102EA800F0123E91753C01753D01753E0A85323F31
:102EB800853340853441853542E4F543C201F54404
:102EC8007D01021A95AD32123A1EAB2FAA30A931F4
:012ED80022D7
:062A5D008B2B8A2C892D51
:102A6300E4F52E9000011202F514602504706E1235
:102A73003E98753410122AEF740312034475331110
:102A8300753420122AEF7404120344753321022A89
:102A9300D5123E98753409122B037403120344753F
:102AA300330A753413122B0374041203447533145D
:102AB30075341D122B1790000674021203447533EC
:102AC3001E753427122B17900006740112034475E8
:102AD3003328753431753507AD2E122E28E4F533BE
:0C2AE300F534753501AB2EFDFF023E2AD4
:102AEF00753507AD2E122E28052EAB2BAA2CA92D2E
:102AFF0090000622753507AD2E122E28052EAB2B12
:102B0F00AA2CA92D90000622753507AD2E122E285E
:092B1F00052EAB2BAA2CA92D22D6
:103F6E00AB2BAA2CA92DE4F53422AB30AA31A93201
:013F7E002220
:103540008D338B308A318932E92404F9E43AFA1256
:1035500002DCFFC313547FFDEF5401FFED540FFE57
:1035600025E04F120377123F789000031202F570A6
:10357000069000021203899000041202F530E00464
:10358000E4120377123F781202DC7003D38001C388
:103590009201123F78AD33123A1E123F78753C010A
:1035A000753D01753E0585333F8534408535418540
:1035B000364275430FE53724FF92017544057D01BE
:0335C000021A9557
:0620B8008B2B8A2C892D00
:1020BE00E4F52EF52F9000011202F5FF7404D39F64
:1020CE005008EF94075003752F01EFB4080040033A
:1020DE0002217A9020E8F828287302210002212498
:1020EE0002214602215D02210C02212F022146020D
:1020FE00215DE4F534753518753608022166123FF8
:10210E006E7535101221897534117535211221899C
:10211E0075342202216C123F6E75351875360980A2
:10212E0020123F6E75351012219D753411753521B3
:10213E0012219D753422800F123F6E75351875363B
:10214E00081221B17534197535317536098015129D
:10215E003F6E7535187536091221B17534197535FE
:10216E0031753608852F37AD2E123540E4F533F52F
:0B217E0034753501AB2EFDFF023E2A38
:10218900753608852F37AD2E123540052EAB2BAA93
:102199002CA92D22753609852F37AD2E123540050C
:1021A9002EAB2BAA2CA92D22852F37AD2E12354007
:0921B900052EAB2BAA2CA92D2246
:073FBF00AB2BAA2CA92D2257
:062CB0008B2B8A2C892DFC
:102CB600E4F52EE92404F9E43AFA1202DCFFC31320
:102CC600547FFDEF5401FFED540FFE25E04F120334
:102CD60077123FBF9000031202F5700790000204BE
:102CE600120389123FBF753C01753D01753E05858E
:102CF6002E3FE4F54075413175420AF543C201F5B0
:102D0600447D0A121A95123FBF9000051202F5C3C0
:102D160013547FFFE52E75F014A4242EF582E434B7
:102D260001F583EFF0E52E75F014A4243FF582E457
:102D36003401F5837401F09000041202F530E004CA
:102D4600E4120377123FBF1202DC7003D38001C383
:102D56009201123FBFAD2E123960E4F533F534759A
:092D66003501AB2EFDFF023E2AEF
:103F7F00AB2BAA2CA92DE4F53322AB2FAA30A931F4
:013F8F00220F
:103170008D328B2F8A308931E92404F9E43AFA122E
:1031800002DCFFC313547FFDEF5401FFED540FFE2B
:1031900025E04F120377123F899000031202F57069
:1031A000069000021203899000041202F530E00438
:1031B000E4120377E53275F014A4243FF582E43479
:1031C00001F5837401F0123F891202DC7003D38091
:1031D00001C39201123F89AD32123960123F8975E5
:1031E0003C01753D01753E0285323F853340853493
:1031F00041853542E4F543C201F5447D01021A954B
:0637B5008B2B8A2C892DEC
:1037BB00E4F52E9000011202F514600F1460111441
:1037CB0060252403703BE4F533802B123F7F800F81
:1037DB00123F7F75341875350B12381B75331975FD
:1037EB00343175350C8015123F7F75341875350CD7
:1037FB0012381B75331975343175350BAD2E1231EB
:10380B0070E4F533F534753501AB2EFDFF023E2A1E
:0E381B00AD2E123170052EAB2BAA2CA92D223A
:103B2300AB2BAA2CA92DE4F53322753C01753D017D
:103B3300753E0285323F85334085344185354222C7
:103B4300AB2FAA30A93122120377AB2BAA2CA92DB4
:103B530022E92404F9E43AFA0202DC7534187535D3
:093B63000D22753319753431226D
:102BEE008D328B2F8A308931123B54FFC313547FA1
:102BFE00FDEF5401FFED540FFE25E04F1203771247
:102C0E003B439000031202F57006900002120389F6
:102C1E009000041202F530E004E4120377E53275F9
:102C2E00F014A4243FF582E43401F583E536F0E593
:102C3E003275F014A4243CF582E43401F583E537B3
:102C4E00F0123B431202DC7003D38001C3920112D7
:102C5E003B43AD32123960123B439000011202F534
:102C6E00FF7404D39F5028EF94075023C003C00273
:102C7E00C001123B2D75430F1202DCB40103D38049
:102C8E0001C39201754401D001D002D003800D1210
:102C9E003B43123B2DE4F543C201F5447D0A121A63
:022CAE0095226D
:060EAA008B2B8A2C892D20
:100EB000E4F52EFF123F1D7F01123F1D123B4D90A6
:100EC00000011202F5B40A00400302105C900ED437
:100ED000F8282873020EF2020F6F020F8902102504
:100EE000020EFE020F7A020F9F02103D020F0A024D
:100EF0000FB8E4F53375343175350D020F83123BAD
:100F00002375343175350F020F83123B2375340678
:100F100075351112106B75330775340D75351175F4
:100F2000360312109175330E7534147535117536FC
:100F30000512109175331575341B7535117536070B
:100F40001210A275331C75342275351175360912CD
:100F500010A275332375342A75351175360B1210AE
:100F6000B375332B75343175351175360D802C12F0
:100F70003B2375343175350E8009123B23753431AE
:100F8000753510753601021055123B23123B5E1267
:100F9000106B123B6575350E753601E40210551263
:100FA0003B2375341875350F12107E123B6575356D
:100FB00010753601E4021055123B23123B5E753664
:100FC0000C7537011210C475350E75360C75370166
:100FD000AD2E122BEE052EAB2BE52D2404F9E435B6
:100FE0002CFA1202DC4401123B4A900003E4120383
:100FF000899000041202F5C313547F04540F25E0B6
:10100000FF123B5454014F123B4A753310123B5EA2
:101010007536011210B375331975342175350E7597
:101020003601E48030123B2375341875350E1210EA
:101030007E123B6575350D753601E48018123B2331
:10104000753418753510753601F5371210C47535BD
:101050000F753601E4F537AD2E122BEEE4F533F5BE
:0B10600034753501AB2EFDFF023E2A67
:10106B00753601F537AD2E122BEE052EAB2BAA2CB8
:10107B00A92D22753601F537AD2E122BEE052EABB1
:10108B002BAA2CA92D22E4F537AD2E122BEE052E13
:10109B00AB2BAA2CA92D22E4F537AD2E122BEE0586
:1010AB002EAB2BAA2CA92D22E4F537AD2E122BEE4D
:1010BB00052EAB2BAA2CA92D22AD2E122BEE052E15
:0D10CB00AB2BAA2CA92D75331975343122D9
:073FC600AB2FAA30A9312244
:1035C3008D328B2F8A308931E92404F9E43AFA12D7
:1035D30002DCFFC313547FFDEF5401FFED540FFED4
:1035E30025E04F120377123FC69000031202F570D5
:1035F30007900002041203899000041202F530E0E0
:1036030004E4120377123FC61202DC7003D3800175
:10361300C39201123FC6AD32123960123FC6753CE8
:1036230005753D01753E0585323F8533408534413F
:0F363300853542E4F543C201F5447D0A021A953C
:063BF7008B2B8A2C892DA6
:103BFD00E4F52E9000011202F514600E04701FE41E
:103C0D00F533753431753513800FAB2BAA2CA92DD7
:103C1D00E4F533753431753514AD2E1235C3E4F535
:0D3C2D0033F534753501AB2EFDFF023E2A44
:0A3F9E00120377AB2FAA30A93122DD
:102ED9008D328B2F8A308931E92404F9E43AFA12C8
:102EE90002DCFFC313547FFDEF5401FFED540FFEC5
:102EF90025E04F123F9E9000031202F5700F9000DB
:102F090002041203899000037401120389123FA17C
:102F19009000041202F530E004E4120377123FA195
:102F29001202DC7004D201800B123FA11202DCB440
:102F39000107C201AD32123960AB2FE5312403F923
:102F4900E43530FA1202DC25E0123F9E753C01752A
:102F59003D01753E0A85323F8533408534418535CB
:102F690042E4F543C201F5447D01121A95E5327533
:102F7900F014A4243FF582E43401F583E536F02208
:0623D4008B2B8A2C892DE1
:1023DA00E4F52EFF123F1D7F01123F1DAB2BAA2CE5
:1023EA00A92D9000011202F514602D046003022445
:1023FA008DE4F53375341012249C7533117534202D
:10240A007535157536081224B07533217534317552
:10241A00351575360E022488AB2BAA2CA92DE4F5A6
:10242A003375340612249C75330775340D753515CA
:10243A007536031224B075330E7534147535157557
:10244A0036051224BE75331575341B753515753668
:10245A00071224BE75331C75342275351575360975
:10246A001224CC75332375342A75351575360B123B
:10247A0024CC75332B75343175351575360DAD2E63
:10248A00122ED9E4F533F534753501AB2EFDFF0272
:02249A003E2AD8
:10249C00753515753601AD2E122ED9052EAB2BAA1E
:1024AC002CA92D22AD2E122ED9052EAB2BAA2CA980
:1024BC002D22AD2E122ED9052EAB2BAA2CA92D22F6
:0E24CC00AD2E122ED9052EAB2BAA2CA92D2237
:103EA200E47873F6123EE6E47873F6E4FBFDFF1263
:103EB2003F5B787306E6C394FF40F07F967E000274
:023EC2003F4877
:103F350053CAEF43C91075BC0475DE0243BC804308
:033F4500BC40225B
:103EC400E4FFFEE5BC30E5FB53BCDFAFBDEF75F0AE
:103ED40004A4FFAEF0E5BEC413135403420743BC6D
:013EE400409D
:013EE50022BA
:103F4800E4FDFCC3ED9FEC9E5008000DBD00010C84
:023F580080F1F6
:013F5A002244
:103EE600E4F52243B20853B1F7C2B3F5227FC87E88
:0D3EF60000123F480522E522C3943240F03F
:013F0300229B
:10193B008F26E52630E713D2B3000000007F017E2F
:10194B0000123F48C2B300008013D2B30000000066
:10195B000000C2B300007F017E00123F48E5263035
:10196B00E613D2B3000000007F017E00123F48C295
:10197B00B300008013D2B3000000000000C2B3001C
:10198B00007F017E00123F48E52630E513D2B300FD
:10199B000000007F017E00123F48C2B3000080139D
:1019AB00D2B3000000000000C2B300007F017E0034
:1019BB00123F48E52630E413D2B3000000007F014C
:1019CB007E00123F48C2B300008013D2B300000068
:1019DB00000000C2B300007F017E00123F48E526E5
:1019EB0030E313D2B3000000007F017E00123F48AA
:1019FB00C2B300008013D2B3000000000000C2B3DA
:101A0B0000007F017E00123F48E52630E213D2B37F
:101A1B00000000007F017E00123F48C2B30000802F
:101A2B0013D2B3000000000000C2B300007F017EA0
:101A3B0000123F48E52630E113D2B3000000007FCF
:101A4B00017E00123F48C2B300008013D2B30000E6
:101A5B0000000000C2B300007F017E00123F48E58A
:101A6B002630E012D2B3000000007F017E00123F4F
:101A7B0048C2B3000022D2B3000000000000C2B382
:0A1A8B0000007F017E00123F482298
:103F5B008F248D25AF0312193BAF2412193BAF25CC
:033F6B0002193BFD
:0C078E00C102016E00016B0041023DFF42
:103F0400538E7F5389F0438902E4F58AF58CC28D80
:093F1400D2A9D288D2A8D2AF22B2
:0300030002364280
:10364200C0E0C083C082C0D075D000C00730024E37
:103652007466C3956E5009E56EC394DD50028042D4
:10366200E56ED394164003436C80E56BC3941F5000
:103672000BE56CC313F56CE56D13F56D756E000506
:103682006BE56B6420702DC28CC202F56BE56CFF9A
:10369200EF456DF4701EE56D90023DF08016D28C00
:1036A200D202756B00756C00756D00756E0090022C
:0F36B2003D74FFF0D007D0D0D082D083D0E0326B
:03000B00020006EA
:03000600056E3252
:10000E000201DBEC5D046005E8590470030201D1C6
:10001E0012019C580460F6EC4860F2EC7004FDFE90
:10002E00FF22C860DB2481C85009C39860025006C5
:10003E000201D89850CAF582E9294B4A7005AB8265
:10004E000201C775F0007C1A7880C3EF9BEE9AED23
:10005E0099400DC3EF9BFFEE9AFEED99FDE842F03D
:10006E00DC23ACF0D0E0FFD0E0FED0E0FDAB822090
:10007E00E7101BEB60BAEC2CFCEF33FFEE33FEED1A
:10008E0033FD0201B3E803F830E705C0F075F00068
:10009E00EF2FFFEE33FEED33FD40B830E7C280AAFE
:1000AE0074F8CC6480CCC86480C8F58204604FC3F9
:1000BE00EB9FF5F0EA9E42F0E99D42F0E89C45F098
:1000CE00603C501DE5825FFFE582D313CB5BCBF422
:1000DE002B5582FB50280ABA002409B9002008804B
:1000EE001DE5825BFBE582D313CF5FCFF4C3132FE5
:1000FE005582FF50090EBE00050DBD00010CC3EB6D
:10010E009FF5F0EA9E42F0E99D42F0E89C45F060D2
:09011E0007CC4820E701B3EC22F4
:1001270075F020800E75F010800575F0087D007E53
:10013700007F003392D530D503120448EC334010CA
:10014700EF33FFEE33FEED33FDEC33FCD5F0ED225C
:0E015700E5F0247EA2D513CC92E7CDCEFF2298
:10016500EDD2E7CD33EC3392D524814006E4FFFE92
:10017500FDFC22FCE4CFCECDCC24E0501174FF80F1
:10018500EDC3CC13CCCD13CDCE13CECF13CF04708E
:07019500F030D5DE02044842
:10019C00E9D2E7C933E833F892D5EDD2E7CD33ECA9
:0701AC0033FC5002B2D52222
:1001B300EC30E7100FBF000C0EBE00080DBD0004AD
:1001C3000BEB6014A2D5EB13FCED92E7FD2274FF59
:1001D300FCFDFEFF22E480F8A2D574FF13FC7D80B2
:0301E300E480EFC6
:0300000002331CAC
:0C331C00787FE4F6D8FD758173023363FE
:1001E600E709F608DFFA8046E709F208DFFA803EFB
:1001F60088828C83E709F0A3DFFA8032E309F608E8
:10020600DFFA8078E309F208DFFA807088828C834F
:10021600E309F0A3DFFA806489828A83E0A3F60803
:10022600DFFA805889828A83E0A3F208DFFA804CDD
:1002360080D280FA80C680D4806980F280338010B4
:1002460080A680EA809A80A880DA80E280CA80331D
:1002560089828A83ECFAE493A3C8C582C8CCC58395
:10026600CCF0A3C8C582C8CCC583CCDFE9DEE78065
:100276000D89828A83E493A3F608DFF9ECFAA9F0E4
:10028600EDFB2289828A83ECFAE0A3C8C582C8CC3A
:10029600C583CCF0A3C8C582C8CCC583CCDFEADE53
:1002A600E880DB89828A83E493A3F208DFF980CCB5
:1002B60088F0EF60010E4E60C388F0ED2402B404AE
:1002C6000050B9F582EB2402B4040050AF23234555
:0602D60082239002367342
:1002DC00BB010689828A83E0225002E722BBFE0220
:0902EC00E32289828A83E4932253
:1002F500BB010CE58229F582E5833AF583E02250BE
:1003050006E92582F8E622BBFE06E92582F8E22207
:0D031500E58229F582E5833AF583E4932221
:10032200BB010989828A83F8E028F022500327F76B
:1003320022BBFE05F8E328F3228A838982F8E4933C
:0203420028226F
:10034400BB010FF8E58229F582E5833AF583E028BD
:10035400F0225009C58229F8E58226F622BBFE095F
:10036400C58229F8E22582F222F8EA2583F583E999
:03037400932822A9
:10037700BB010689828A83F0225002F722BBFE0165
:02038700F3225F
:10038900F8BB010DE58229F582E5833AF583E8F0AA
:10039900225006E92582C8F622BBFE05E92582C856
:0203A900F2223E
:1003AB00EF8DF0A4A8F0CF8CF0A428CE8DF0A42E66
:0203BB00FE2220
:1003BD00BC000BBE0029EF8DF084FFADF022E4CC24
:1003CD00F875F008EF2FFFEE33FEEC33FCEE9DECED
:1003DD00984005FCEE9DFE0FD5F0E9E4CEFD22ED33
:1003ED00F8F5F0EE8420D21CFEADF075F008EF2F7D
:1003FD00FFED33FD4007985006D5F0F222C398FD6E
:05040D000FD5F0EA220A
:10041200C2D5EC30E709B2D5E4C39DFDE49CFCEE05
:1004220030E715B2D5E4C39FFFE49EFE1203BDC3BD
:10043200E49DFDE49CFC80031203BD30D507C3E4B8
:060442009FFFE49EFE2274
:0E044800C3E49FFFE49EFEE49DFDE49CFC22C5
:0C045600A42582F582E5F03583F58322B1
:10046200BB011A89828A83D0F0D0E0F8D0E0F9D0BB
:10047200E0FAD0E0FBE8C0E0C0F00204EC5016E97C
:10048200F8D083D082D0E0F9D0E0FAD0E0FBC0828D
:10049200C0830204E3BBFE16E9F8D083D082D0E029
:0F04A200F9D0E0FAD0E0FBC082C0830204F5225B
:0604B1008A838982E473D6
:1004B700EF4E6012EF60010EEDBB010B89828A835C
:1004C700F0A3DFFCDEFA2289F05007F709DFFCA969
:0C04D700F022BBFEFCF309DFFCA9F022C0
:10332800023F90E493A3F8E493A34003F68001F2EC
:1033380008DFF48029E493A3F85407240CC8C333A6
:10334800C4540F4420C8834004F456800146F6DF75
:10335800E4800B01020408102040809004FEE47E03
:10336800019360BCA3FF543F30E509541FFEE4936A
:10337800A360010ECF54C025E060A840B8E493A331
:10338800FAE493A3F8E493A3C8C582C8CAC583CA5C
:10339800F0A3C8C582C8CAC583CADFE9DEE780BE14
:01079A00005E
:0904E300EBF608EAF608E9F6223E
:0904EC00EBF0A3EAF0A3E9F02211
:0904F500EBF208EAF208E9F22238
:00000001FF
